{
  "contractName": "DataPrice",
  "abi": [
    {
      "anonymous": false,
      "inputs": [
        {
          "indexed": false,
          "internalType": "uint256",
          "name": "batchIndex",
          "type": "uint256"
        },
        {
          "indexed": false,
          "internalType": "uint256",
          "name": "processedCount",
          "type": "uint256"
        }
      ],
      "name": "BatchProcessed",
      "type": "event"
    },
    {
      "anonymous": false,
      "inputs": [
        {
          "indexed": false,
          "internalType": "string",
          "name": "id",
          "type": "string"
        },
        {
          "indexed": false,
          "internalType": "uint256",
          "name": "reservePrice",
          "type": "uint256"
        },
        {
          "indexed": false,
          "internalType": "uint256",
          "name": "initialPrice",
          "type": "uint256"
        },
        {
          "indexed": false,
          "internalType": "uint256",
          "name": "trust",
          "type": "uint256"
        },
        {
          "indexed": false,
          "internalType": "uint256",
          "name": "lossAversion",
          "type": "uint256"
        },
        {
          "indexed": false,
          "internalType": "uint256",
          "name": "qualityRequest",
          "type": "uint256"
        }
      ],
      "name": "BuyerAdded",
      "type": "event"
    },
    {
      "anonymous": false,
      "inputs": [
        {
          "indexed": false,
          "internalType": "string",
          "name": "buyerId",
          "type": "string"
        },
        {
          "indexed": false,
          "internalType": "string",
          "name": "sellerId",
          "type": "string"
        },
        {
          "indexed": false,
          "internalType": "uint256",
          "name": "price",
          "type": "uint256"
        }
      ],
      "name": "Matched",
      "type": "event"
    },
    {
      "anonymous": false,
      "inputs": [
        {
          "indexed": true,
          "internalType": "string",
          "name": "buyerId",
          "type": "string"
        },
        {
          "indexed": true,
          "internalType": "string",
          "name": "sellerId",
          "type": "string"
        },
        {
          "indexed": false,
          "internalType": "bool",
          "name": "qualityPassed",
          "type": "bool"
        },
        {
          "indexed": false,
          "internalType": "bool",
          "name": "reservePriceValid",
          "type": "bool"
        },
        {
          "indexed": false,
          "internalType": "bool",
          "name": "priceRange",
          "type": "bool"
        },
        {
          "indexed": false,
          "internalType": "bool",
          "name": "dealSuccess",
          "type": "bool"
        },
        {
          "indexed": false,
          "internalType": "uint256",
          "name": "dealPrice",
          "type": "uint256"
        },
        {
          "indexed": false,
          "internalType": "string",
          "name": "productId",
          "type": "string"
        },
        {
          "indexed": false,
          "internalType": "uint256",
          "name": "benchmarkPrice",
          "type": "uint256"
        }
      ],
      "name": "MatchedDetail",
      "type": "event"
    },
    {
      "anonymous": false,
      "inputs": [
        {
          "indexed": false,
          "internalType": "string",
          "name": "productId",
          "type": "string"
        },
        {
          "indexed": false,
          "internalType": "uint256",
          "name": "benchmarkPrice",
          "type": "uint256"
        },
        {
          "indexed": false,
          "internalType": "uint256",
          "name": "qualityFactor",
          "type": "uint256"
        }
      ],
      "name": "ProductAdded",
      "type": "event"
    },
    {
      "anonymous": false,
      "inputs": [
        {
          "indexed": false,
          "internalType": "string",
          "name": "id",
          "type": "string"
        },
        {
          "indexed": false,
          "internalType": "uint256",
          "name": "reservePrice",
          "type": "uint256"
        },
        {
          "indexed": false,
          "internalType": "uint256",
          "name": "initialPrice",
          "type": "uint256"
        },
        {
          "indexed": false,
          "internalType": "uint256",
          "name": "trust",
          "type": "uint256"
        },
        {
          "indexed": false,
          "internalType": "uint256",
          "name": "lossAversion",
          "type": "uint256"
        },
        {
          "indexed": false,
          "internalType": "string",
          "name": "productId",
          "type": "string"
        },
        {
          "indexed": false,
          "internalType": "uint256",
          "name": "maxMatchCount",
          "type": "uint256"
        }
      ],
      "name": "SellerAdded",
      "type": "event"
    },
    {
      "anonymous": false,
      "inputs": [
        {
          "indexed": false,
          "internalType": "string",
          "name": "sellerId",
          "type": "string"
        }
      ],
      "name": "SellerMaxMatchesReached",
      "type": "event"
    },
    {
      "inputs": [],
      "name": "batchSize",
      "outputs": [
        {
          "internalType": "uint256",
          "name": "",
          "type": "uint256"
        }
      ],
      "stateMutability": "view",
      "type": "function",
      "constant": true
    },
    {
      "inputs": [
        {
          "internalType": "uint256",
          "name": "",
          "type": "uint256"
        }
      ],
      "name": "buyers",
      "outputs": [
        {
          "internalType": "string",
          "name": "id",
          "type": "string"
        },
        {
          "internalType": "uint256",
          "name": "reservePrice",
          "type": "uint256"
        },
        {
          "internalType": "uint256",
          "name": "initialPrice",
          "type": "uint256"
        },
        {
          "internalType": "uint256",
          "name": "trust",
          "type": "uint256"
        },
        {
          "internalType": "uint256",
          "name": "lossAversion",
          "type": "uint256"
        },
        {
          "internalType": "uint256",
          "name": "qualityRequest",
          "type": "uint256"
        }
      ],
      "stateMutability": "view",
      "type": "function",
      "constant": true
    },
    {
      "inputs": [],
      "name": "currentBuyerBatch",
      "outputs": [
        {
          "internalType": "uint256",
          "name": "",
          "type": "uint256"
        }
      ],
      "stateMutability": "view",
      "type": "function",
      "constant": true
    },
    {
      "inputs": [],
      "name": "currentMode",
      "outputs": [
        {
          "internalType": "enum DataPrice.PricingMode",
          "name": "",
          "type": "uint8"
        }
      ],
      "stateMutability": "view",
      "type": "function",
      "constant": true
    },
    {
      "inputs": [
        {
          "internalType": "uint256",
          "name": "",
          "type": "uint256"
        }
      ],
      "name": "products",
      "outputs": [
        {
          "internalType": "string",
          "name": "productId",
          "type": "string"
        },
        {
          "internalType": "uint256",
          "name": "benchmarkPrice",
          "type": "uint256"
        },
        {
          "internalType": "uint256",
          "name": "qualityFactor",
          "type": "uint256"
        },
        {
          "internalType": "enum DataPrice.MarketPeriod",
          "name": "period",
          "type": "uint8"
        }
      ],
      "stateMutability": "view",
      "type": "function",
      "constant": true
    },
    {
      "inputs": [
        {
          "internalType": "uint256",
          "name": "",
          "type": "uint256"
        }
      ],
      "name": "sellers",
      "outputs": [
        {
          "internalType": "string",
          "name": "id",
          "type": "string"
        },
        {
          "internalType": "uint256",
          "name": "reservePrice",
          "type": "uint256"
        },
        {
          "internalType": "uint256",
          "name": "initialPrice",
          "type": "uint256"
        },
        {
          "internalType": "uint256",
          "name": "trust",
          "type": "uint256"
        },
        {
          "internalType": "uint256",
          "name": "lossAversion",
          "type": "uint256"
        },
        {
          "internalType": "string",
          "name": "productId",
          "type": "string"
        },
        {
          "internalType": "uint256",
          "name": "firstBid",
          "type": "uint256"
        },
        {
          "internalType": "uint256",
          "name": "matchCount",
          "type": "uint256"
        },
        {
          "internalType": "uint256",
          "name": "maxMatchCount",
          "type": "uint256"
        }
      ],
      "stateMutability": "view",
      "type": "function",
      "constant": true
    },
    {
      "inputs": [],
      "name": "resetAll",
      "outputs": [],
      "stateMutability": "nonpayable",
      "type": "function"
    },
    {
      "inputs": [
        {
          "internalType": "uint256",
          "name": "_mode",
          "type": "uint256"
        }
      ],
      "name": "setPricingMode",
      "outputs": [],
      "stateMutability": "nonpayable",
      "type": "function"
    },
    {
      "inputs": [
        {
          "internalType": "string",
          "name": "productId",
          "type": "string"
        },
        {
          "internalType": "uint256",
          "name": "benchmarkPrice",
          "type": "uint256"
        },
        {
          "internalType": "uint256",
          "name": "qualityFactor",
          "type": "uint256"
        },
        {
          "internalType": "enum DataPrice.MarketPeriod",
          "name": "period",
          "type": "uint8"
        }
      ],
      "name": "addProduct",
      "outputs": [],
      "stateMutability": "nonpayable",
      "type": "function"
    },
    {
      "inputs": [
        {
          "internalType": "string",
          "name": "id",
          "type": "string"
        },
        {
          "internalType": "uint256",
          "name": "reservePrice",
          "type": "uint256"
        },
        {
          "internalType": "uint256",
          "name": "initialPrice",
          "type": "uint256"
        },
        {
          "internalType": "uint256",
          "name": "trust",
          "type": "uint256"
        },
        {
          "internalType": "uint256",
          "name": "lossAversion",
          "type": "uint256"
        },
        {
          "internalType": "uint256",
          "name": "qualityRequest",
          "type": "uint256"
        }
      ],
      "name": "addBuyer",
      "outputs": [],
      "stateMutability": "nonpayable",
      "type": "function"
    },
    {
      "inputs": [
        {
          "internalType": "string",
          "name": "id",
          "type": "string"
        },
        {
          "internalType": "uint256",
          "name": "reservePrice",
          "type": "uint256"
        },
        {
          "internalType": "uint256",
          "name": "initialPrice",
          "type": "uint256"
        },
        {
          "internalType": "uint256",
          "name": "trust",
          "type": "uint256"
        },
        {
          "internalType": "uint256",
          "name": "lossAversion",
          "type": "uint256"
        },
        {
          "internalType": "string",
          "name": "productId",
          "type": "string"
        },
        {
          "internalType": "uint256",
          "name": "maxMatchCount",
          "type": "uint256"
        }
      ],
      "name": "addSeller",
      "outputs": [],
      "stateMutability": "nonpayable",
      "type": "function"
    },
    {
      "inputs": [
        {
          "internalType": "string",
          "name": "sellerId",
          "type": "string"
        }
      ],
      "name": "getSellerMatchCount",
      "outputs": [
        {
          "internalType": "uint256",
          "name": "",
          "type": "uint256"
        }
      ],
      "stateMutability": "view",
      "type": "function",
      "constant": true
    },
    {
      "inputs": [],
      "name": "getAllSellers",
      "outputs": [
        {
          "components": [
            {
              "internalType": "string",
              "name": "id",
              "type": "string"
            },
            {
              "internalType": "uint256",
              "name": "reservePrice",
              "type": "uint256"
            },
            {
              "internalType": "uint256",
              "name": "initialPrice",
              "type": "uint256"
            },
            {
              "internalType": "uint256",
              "name": "trust",
              "type": "uint256"
            },
            {
              "internalType": "uint256",
              "name": "lossAversion",
              "type": "uint256"
            },
            {
              "internalType": "string",
              "name": "productId",
              "type": "string"
            },
            {
              "internalType": "uint256",
              "name": "firstBid",
              "type": "uint256"
            },
            {
              "internalType": "uint256",
              "name": "matchCount",
              "type": "uint256"
            },
            {
              "internalType": "uint256",
              "name": "maxMatchCount",
              "type": "uint256"
            }
          ],
          "internalType": "struct DataPrice.Seller[]",
          "name": "",
          "type": "tuple[]"
        }
      ],
      "stateMutability": "view",
      "type": "function",
      "constant": true
    },
    {
      "inputs": [
        {
          "internalType": "string",
          "name": "specificSeller",
          "type": "string"
        }
      ],
      "name": "resetMatchingState",
      "outputs": [],
      "stateMutability": "nonpayable",
      "type": "function"
    },
    {
      "inputs": [],
      "name": "performMatching",
      "outputs": [
        {
          "internalType": "bool",
          "name": "",
          "type": "bool"
        }
      ],
      "stateMutability": "nonpayable",
      "type": "function"
    }
  ],
  "bytecode": "0x6080604052600060035560016004556005805460ff1916905534801561002457600080fd5b506126f9806100346000396000f3fe608060405234801561001057600080fd5b5060043610610112576000357c010000000000000000000000000000000000000000000000000000000090048063bd0f5fa5116100b4578063e103aef511610083578063e103aef514610220578063ef893a3c14610228578063f2aa82181461023b578063f4daaba11461026057610112565b8063bd0f5fa5146101bd578063c949c231146101d2578063cee26ed5146101e5578063de81e1d01461020d57610112565b8063562090d5116100f0578063562090d51461015d5780637acc0b20146101705780638125092f146101935780639b269b8f146101a857610112565b80631cdbd9e0146101175780632e79a9561461012c57806338283d281461013f575b600080fd5b61012a610125366004612035565b610268565b005b61012a61013a366004611fa4565b610396565b610147610546565b604051610154919061258f565b60405180910390f35b61012a61016b366004611f40565b61054c565b61018361017e366004612098565b610657565b6040516101549493929190612353565b61019b610724565b6040516101549190612308565b6101b061072d565b60405161015491906121e1565b6101c56108f8565b60405161015491906122b0565b61012a6101e0366004612098565b6109f0565b6101f86101f3366004612098565b610a6c565b604051610154999897969594939291906123de565b61014761021b366004611f0d565b610bda565b61012a610d25565b61012a610236366004611f0d565b610d4a565b61024e610249366004612098565b610e0a565b60405161015496959493929190612441565b610147610ede565b6000851180156102785750600084115b6102a05760405160e560020a62461bcd02815260040161029790612558565b60405180910390fd5b6040805160c0810182528781526020808201889052918101869052606081018590526080810184905260a081018390526000805460018101825590805281518051929360069092027f290decd9548b62a8d60345a988386fc84ba6bc95484008f6362f93160ef3e56301926103189284920190611c7b565b506020820151816001015560408201518160020155606082015181600301556080820151816004015560a0820151816005015550507fc938ff42bbf0346c7b5614b53bd0a4578a97689e089d84084879ed5b71eeb3f586868686868660405161038696959493929190612441565b60405180910390a1505050505050565b6000861180156103a65750600085115b6103c55760405160e560020a62461bcd02815260040161029790612558565b60006103d083610ee4565b9050600081116103f55760405160e560020a62461bcd02815260040161029790612521565b6000610402878388610f93565b60408051610120810182528b815260208082018c90529181018a9052606081018990526080810188905260a0810187905260c08101839052600060e082018190526101008201879052600180548082018255915281518051949550919360099091027fb10e2d527612073b26eecdfd717e6a320cf44b4afac2b0732d9fcbe2b7fa0cf60192610495928492910190611c7b565b50602082810151600183015560408301516002830155606083015160038301556080830151600483015560a083015180516104d69260058501920190611c7b565b5060c0820151816006015560e08201518160070155610100820151816008015550507f27543998adfaf0f983273732c86605df9ad11806c79598a7e56d8138e712f18189898989898989604051610533979695949392919061238c565b60405180910390a1505050505050505050565b60035481565b6002604051806080016040528086815260200185815260200184815260200183600281111561058e5760e060020a634e487b7102600052602160045260246000fd5b9052815460018101835560009283526020928390208251805193946004909302909101926105bf9284920190611c7b565b50602082015181600101556040820151816002015560608201518160030160006101000a81548160ff0219169083600281111561060f5760e060020a634e487b7102600052602160045260246000fd5b021790555050507faf15189af1861da85d7d959da20a528553cf2d64fc75f6fc7f6894097e9e9cf18484846040516106499392919061232e565b60405180910390a150505050565b6002818154811061066757600080fd5b906000526020600020906004020160009150905080600001805461068a90612617565b80601f01602080910402602001604051908101604052809291908181526020018280546106b690612617565b80156107035780601f106106d857610100808354040283529160200191610703565b820191906000526020600020905b8154815290600101906020018083116106e657829003601f168201915b50505050600183015460028401546003909401549293909290915060ff1684565b60055460ff1681565b60606001805480602002602001604051908101604052809291908181526020016000905b828210156108ee57838290600052602060002090600902016040518061012001604052908160008201805461078590612617565b80601f01602080910402602001604051908101604052809291908181526020018280546107b190612617565b80156107fe5780601f106107d3576101008083540402835291602001916107fe565b820191906000526020600020905b8154815290600101906020018083116107e157829003601f168201915b505050505081526020016001820154815260200160028201548152602001600382015481526020016004820154815260200160058201805461083f90612617565b80601f016020809104026020016040519081016040528092919081815260200182805461086b90612617565b80156108b85780601f1061088d576101008083540402835291602001916108b8565b820191906000526020600020905b81548152906001019060200180831161089b57829003601f168201915b50505050508152602001600682015481526020016007820154815260200160088201548152505081526020019060010190610751565b5050505090505b90565b60008060045460035461090b91906125e1565b90506000600454600354600161092191906125a6565b61092b91906125e1565b60005490915081111561093d57506000545b8082106109545750506000600381905590506108f5565b6000825b828110156109895761096981611000565b8161097381612655565b925050808061098190612655565b915050610958565b506003805490600061099a83612655565b91905055507f3838459cd794256a3c29bb3186da72029a8036c0f596fee1bd526f8eb9493d4160016003546109cf9190612600565b826040516109de929190612598565b60405180910390a16001935050505090565b6002811115610a145760405160e560020a62461bcd028152600401610297906124b3565b806002811115610a375760e060020a634e487b7102600052602160045260246000fd5b6005805460ff19166001836002811115610a645760e060020a634e487b7102600052602160045260246000fd5b021790555050565b60018181548110610a7c57600080fd5b9060005260206000209060090201600091509050806000018054610a9f90612617565b80601f0160208091040260200160405190810160405280929190818152602001828054610acb90612617565b8015610b185780601f10610aed57610100808354040283529160200191610b18565b820191906000526020600020905b815481529060010190602001808311610afb57829003601f168201915b505050505090806001015490806002015490806003015490806004015490806005018054610b4590612617565b80601f0160208091040260200160405190810160405280929190818152602001828054610b7190612617565b8015610bbe5780601f10610b9357610100808354040283529160200191610bbe565b820191906000526020600020905b815481529060010190602001808311610ba157829003601f168201915b5050505050908060060154908060070154908060080154905089565b6000805b600154811015610d0457610caf60018281548110610c0f5760e060020a634e487b7102600052603260045260246000fd5b90600052602060002090600902016000018054610c2b90612617565b80601f0160208091040260200160405190810160405280929190818152602001828054610c5790612617565b8015610ca45780601f10610c7957610100808354040283529160200191610ca4565b820191906000526020600020905b815481529060010190602001808311610c8757829003601f168201915b505050505084611674565b15610cf25760018181548110610cd85760e060020a634e487b7102600052603260045260246000fd5b906000526020600020906009020160070154915050610d20565b80610cfc81612655565b915050610bde565b5060405160e560020a62461bcd028152600401610297906124ea565b919050565b610d30600080611cff565b610d3c60016000611d20565b610d4860026000611d41565b565b60006003558051610db45760005b600154811015610dae57600060018281548110610d885760e060020a634e487b7102600052603260045260246000fd5b600091825260209091206007600990920201015580610da681612655565b915050610d58565b50610e07565b6000610dbf82611690565b905060008112610e0557600060018281548110610def5760e060020a634e487b7102600052603260045260246000fd5b9060005260206000209060090201600701819055505b505b50565b60008181548110610e1a57600080fd5b9060005260206000209060060201600091509050806000018054610e3d90612617565b80601f0160208091040260200160405190810160405280929190818152602001828054610e6990612617565b8015610eb65780601f10610e8b57610100808354040283529160200191610eb6565b820191906000526020600020905b815481529060010190602001808311610e9957829003601f168201915b5050505050908060010154908060020154908060030154908060040154908060050154905086565b60045481565b6000805b600254811015610f8a57610f3560028281548110610f195760e060020a634e487b7102600052603260045260246000fd5b90600052602060002090600402016000018054610c2b90612617565b15610f785760028181548110610f5e5760e060020a634e487b7102600052603260045260246000fd5b906000526020600020906004020160010154915050610d20565b80610f8281612655565b915050610ee8565b50600092915050565b6000838310610fce57612710610fa98585612600565b610fb390846125e1565b610fbd91906125be565b610fc790856125a6565b9050610ff9565b612710610fdb8486612600565b610fe590846125e1565b610fef91906125be565b610fc79085612600565b9392505050565b60008082815481106110255760e060020a634e487b7102600052603260045260246000fd5b6000918252602080832060408051928301905283825260069092029091019250906000199081905b600154811015611537576001818154811061107b5760e060020a634e487b7102600052603260045260246000fd5b906000526020600020906009020160080154600182815481106110b15760e060020a634e487b7102600052603260045260246000fd5b906000526020600020906009020160070154106110cd57611525565b600080611196600184815481106110f75760e060020a634e487b7102600052603260045260246000fd5b9060005260206000209060090201600501805461111390612617565b80601f016020809104026020016040519081016040528092919081815260200182805461113f90612617565b801561118c5780601f106111615761010080835404028352916020019161118c565b820191906000526020600020905b81548152906001019060200180831161116f57829003601f168201915b50505050506116ed565b915091506000604051806101200160405280848152602001838152602001600081526020016000815260200160008152602001600081526020016000815260200160008152602001600081525090506000611223896001878154811061120f5760e060020a634e487b7102600052603260045260246000fd5b90600052602060002090600902018461185f565b9050600185815481106112495760e060020a634e487b7102600052603260045260246000fd5b90600052602060002090600902016000016040516112679190612172565b6040519081900381209061127c908b90612172565b60405180910390207f43130b71c1e70caedabe759a6208a994f1ecc89d5df969d706aa00e15dadcedb8b60050154856020015111600189815481106112d45760e060020a634e487b7102600052603260045260246000fd5b9060005260206000209060090201600101548d600101541161c35060018b815481106113135760e060020a634e487b7102600052603260045260246000fd5b90600052602060002090600902016004015460018c815481106113495760e060020a634e487b7102600052603260045260246000fd5b90600052602060002090600902016001015461136591906125e1565b61136f91906125be565b60018b815481106113935760e060020a634e487b7102600052603260045260246000fd5b9060005260206000209060090201600101546113af9190612600565b861180156113eb575061c3508e600401548f600101546113cf91906125e1565b6113d991906125be565b8e600101546113e891906125a6565b86105b600087118760018d815481106114145760e060020a634e487b7102600052603260045260246000fd5b90600052602060002090600902016005018a6000015160405161143d97969594939291906122bb565b60405180910390a360008111801561145457508681105b1561152057809650600185815481106114805760e060020a634e487b7102600052603260045260246000fd5b9060005260206000209060090201600001805461149c90612617565b80601f01602080910402602001604051908101604052809291908181526020018280546114c890612617565b80156115155780601f106114ea57610100808354040283529160200191611515565b820191906000526020600020905b8154815290600101906020018083116114f857829003601f168201915b505050505097508495505b505050505b8061152f81612655565b91505061104d565b50600019821461166d576040517fd47f872b9dfd4f01e3cfbcc3a0591d16c2006032abdf40408819f52a466c4e5d906115759086908690869061247d565b60405180910390a1600181815481106115a15760e060020a634e487b7102600052603260045260246000fd5b6000918252602082206007600990920201018054916115bf83612655565b9190505550600181815481106115e85760e060020a634e487b7102600052603260045260246000fd5b9060005260206000209060090201600801546001828154811061161e5760e060020a634e487b7102600052603260045260246000fd5b9060005260206000209060090201600701541061166d577fd47c7f67d94c66f4453618add200cfc8a5ec23fe3be5a100abc3ebffa47924b783604051611664919061231b565b60405180910390a15b5050505050565b6000818051906020012083805190602001201490505b92915050565b6000805b6001548110156116e3576116c560018281548110610c0f5760e060020a634e487b7102600052603260045260246000fd5b156116d1579050610d20565b806116db81612655565b915050611694565b5060001992915050565b60008060005b600254811015611851576117c4600282815481106117245760e060020a634e487b7102600052603260045260246000fd5b9060005260206000209060040201600001805461174090612617565b80601f016020809104026020016040519081016040528092919081815260200182805461176c90612617565b80156117b95780601f1061178e576101008083540402835291602001916117b9565b820191906000526020600020905b81548152906001019060200180831161179c57829003601f168201915b505050505085611674565b1561183f57600281815481106117ed5760e060020a634e487b7102600052603260045260246000fd5b906000526020600020906004020160010154600282815481106118235760e060020a634e487b7102600052603260045260246000fd5b906000526020600020906004020160020154925092505061185a565b8061184981612655565b9150506116f3565b50600080915091505b915091565b600061187d82602001518560050154856001015487600101546118cb565b61188957506000610ff9565b60006118968585856118f7565b90506118b5818560010154876001015487600401548960040154611a9f565b6118c05760006118c2565b805b95945050505050565b60008385116118dc575060006118ef565b8282116118eb575060006118ef565b5060015b949350505050565b6000600160055460ff1660028111156119235760e060020a634e487b7102600052602160045260246000fd5b141561193157508051610ff9565b600260055460ff16600281111561195b5760e060020a634e487b7102600052602160045260246000fd5b14156119815760028460010154846001015461197791906125a6565b610fc791906125be565b600060055460ff1660028111156119ab5760e060020a634e487b7102600052602160045260246000fd5b1415611a95576119c8846002015483600001518660030154610f93565b8260400181815250506119e8836006015484600101548660010154611b09565b826060018181525050611a08826040015184600101548660010154611b09565b604083015260018085015490840154611a219190611b63565b60808301526040820151606083015111611a4b5760028260400151836060015161197791906125a6565b610fc782604001518360600151611a748760010154866040015189600401548860800151611b87565b611a908760010154876060015189600401548960800151611b87565b611bd4565b5060009392505050565b600061c350611aae84876125e1565b611ab891906125be565b611ac29086612600565b86111580611af0575061c350611ad883866125e1565b611ae291906125be565b611aec90856125a6565b8610155b15611afd575060006118c2565b50600195945050505050565b600082841015611b3357600a611b1f8484612600565b611b2991906125be565b610fc790846125a6565b81841115611b5b57600a611b478484612600565b611b5191906125be565b610fc79083612600565b509192915050565b6000818310611b7d57611b768284612600565b905061168a565b611b768383612600565b600080611b948686611b63565b90506000611ba284836125a6565b905080611bb4576001925050506118ef565b80611bbf85876125e1565b611bc991906125be565b979650505050505050565b60006001831015611be457600192505b6001821015611bf257600191505b6000611bfe8686612600565b90506000611c0e85612710612600565b611c1890836125e1565b611c24906127106125e1565b90506000611c3285876125e1565b611c40906305f5e100612600565b905060008111611c5657600193505050506118ef565b6000611c6282846125be565b9050611c6e818a6125a6565b9998505050505050505050565b828054611c8790612617565b90600052602060002090601f016020900481019282611ca95760008555611cef565b82601f10611cc257805160ff1916838001178555611cef565b82800160010185558215611cef579182015b82811115611cef578251825591602001919060010190611cd4565b50611cfb929150611d62565b5090565b5080546000825560060290600052602060002090810190610e079190611d77565b5080546000825560090290600052602060002090810190610e079190611db7565b5080546000825560040290600052602060002090810190610e079190611e19565b5b80821115611cfb5760008155600101611d63565b80821115611cfb576000611d8b8282611e50565b506000600182018190556002820181905560038201819055600482018190556005820155600601611d77565b80821115611cfb576000611dcb8282611e50565b6001820160009055600282016000905560038201600090556004820160009055600582016000611dfb9190611e50565b50600060068201819055600782018190556008820155600901611db7565b80821115611cfb576000611e2d8282611e50565b50600060018201819055600282015560038101805460ff19169055600401611e19565b508054611e5c90612617565b6000825580601f10611e6e5750610e07565b601f016020900490600052602060002090810190610e079190611d62565b600082601f830112611e9c578081fd5b813567ffffffffffffffff80821115611eb757611eb7612689565b604051601f8301601f191681016020018281118282101715611edb57611edb612689565b604052828152848301602001861015611ef2578384fd5b82602086016020830137918201602001929092529392505050565b600060208284031215611f1e578081fd5b813567ffffffffffffffff811115611f34578182fd5b6118ef84828501611e8c565b60008060008060808587031215611f55578283fd5b843567ffffffffffffffff811115611f6b578384fd5b611f7787828801611e8c565b9450506020850135925060408501359150606085013560038110611f99578182fd5b939692955090935050565b600080600080600080600060e0888a031215611fbe578283fd5b873567ffffffffffffffff80821115611fd5578485fd5b611fe18b838c01611e8c565b985060208a0135975060408a0135965060608a0135955060808a0135945060a08a0135915080821115612012578384fd5b5061201f8a828b01611e8c565b92505060c0880135905092959891949750929550565b60008060008060008060c0878903121561204d578182fd5b863567ffffffffffffffff811115612063578283fd5b61206f89828a01611e8c565b9960208901359950604089013598606081013598506080810135975060a0013595509350505050565b6000602082840312156120a9578081fd5b5035919050565b60008151808452815b818110156120d5576020818501810151868301820152016120b9565b818111156120e65782602083870101525b50601f01601f19169290920160200192915050565b6000815461210881612617565b808552602060018381168015612125576001811461213957612167565b60ff19851688840152604088019550612167565b866000528260002060005b8581101561215f5781548a8201860152908301908401612144565b890184019650505b505050505092915050565b600080835461218081612617565b6001828116801561219857600181146121a9576121d5565b60ff198416875282870194506121d5565b8786526020808720875b858110156121cc5781548a8201529084019082016121b3565b50505082870194505b50929695505050505050565b60208082528251828201819052600091906040908185019080840286018301878501865b838110156122a257603f198984030185528151610120815181865261222c828701826120b0565b915050888201518986015287820151888601526060808301518187015250608080830151818701525060a0808301518683038288015261226c83826120b0565b60c0858101519089015260e080860151908901526101009485015194909701939093525050509386019390860190600101612205565b509098975050505050505050565b901515815260200190565b6000881515825287151560208301528615156040830152851515606083015284608083015260e060a08301526122f460e08301856120fb565b90508260c083015298975050505050505050565b60208101612315836126a2565b91905290565b600060208252610ff960208301846120b0565b60006060825261234160608301866120b0565b60208301949094525060400152919050565b60006080825261236660808301876120b0565b905084602083015283604083015261237d836126a2565b82606083015295945050505050565b600060e0825261239f60e083018a6120b0565b88602084015287604084015286606084015285608084015282810360a08401526123c981866120b0565b9150508260c083015298975050505050505050565b60006101208083526123f28184018d6120b0565b90508a602084015289604084015288606084015287608084015282810360a084015261241e81886120b0565b60c0840196909652505060e0810192909252610100909101529695505050505050565b600060c0825261245460c08301896120b0565b60208301979097525060408101949094526060840192909252608083015260a090910152919050565b60006060825261249060608301866120fb565b82810360208401526124a281866120b0565b915050826040830152949350505050565b6020808252600c908201527f496e76616c6964206d6f64650000000000000000000000000000000000000000604082015260600190565b60208082526010908201527f53656c6c6572206e6f7420666f756e6400000000000000000000000000000000604082015260600190565b60208082526011908201527f50726f64756374206e6f7420666f756e64000000000000000000000000000000604082015260600190565b60208082526017908201527f507269636573206d75737420626520706f736974697665000000000000000000604082015260600190565b90815260200190565b918252602082015260400190565b600082198211156125b9576125b9612670565b500190565b6000826125dc5760e060020a634e487b710281526012600452602481fd5b500490565b60008160001904831182151516156125fb576125fb612670565b500290565b60008282101561261257612612612670565b500390565b60028104600182168061262b57607f821691505b6020821081141561264f5760e060020a634e487b7102600052602260045260246000fd5b50919050565b600060001982141561266957612669612670565b5060010190565b60e060020a634e487b7102600052601160045260246000fd5b60e060020a634e487b7102600052604160045260246000fd5b60038110610e075760e060020a634e487b7102600052602160045260246000fdfea26469706673582212206d73d79cf8081a24a81f96b399c2786bd2be4bc64f35e35830881dc3a290f7b264736f6c63430008000033",
  "immutableReferences": {},
  "source": "// SPDX-License-Identifier: GPL-3.0\r\npragma solidity ^0.8.0;\r\ncontract DataPrice {\r\n    struct Buyer {\r\n        string id; // Buyer ID\r\n        uint256 reservePrice; // Reserve price(P_res)\r\n        uint256 initialPrice; // Initial quote(p_0)\r\n        uint256 trust; // Platform trust index(_cre)\r\n        uint256 lossAversion; // Loss aversion index()\r\n        uint256 qualityRequest;// Quality acceptance threshold(Q_re)\r\n    }\r\n    struct Seller {\r\n        string id; // Seller ID\r\n        uint256 reservePrice; // Reserve price(P_res)\r\n        uint256 initialPrice; // Initial quote(p_0)\r\n        uint256 trust; // Platform trust index(_cre)\r\n        uint256 lossAversion; // Loss aversion index()\r\n        string productId; // Product ID\r\n        uint256 firstBid; \r\n        uint256 matchCount; \r\n        uint256 maxMatchCount; \r\n    }\r\n    // Market period enumeration\r\n    enum MarketPeriod {HIGH_VOLATILITY, SUPPLY_SURPLUS, BALANCE}\r\n    struct Product {\r\n        string productId; // Product ID\r\n        uint256 benchmarkPrice; // Benchmark price(P_off)\r\n        uint256 qualityFactor; // Data quality(Q)\r\n        MarketPeriod period;  // Mark market period\r\n    }\r\n    // Interactive structure, reduce parameter transmission\r\n    struct NegotiationContext {\r\n        uint256 benchmarkPrice;\r\n        uint256 qualityFactor;\r\n        uint256 buyerFirstOffer;\r\n        uint256 adjustedSellerFirstBid; // Adjusted quote(p_1)\r\n        uint256 diff;\r\n        uint256 buyerMinProfit;\r\n        uint256 sellerMinProfit;\r\n        uint256 buyerBehavioral;\r\n        uint256 sellerBehavioral;\r\n    }\r\n    Buyer[] public buyers; // All buyers\r\n    Seller[] public sellers; // All sellers\r\n    Product[] public products; // All product\r\n    // Batch processing of status variables\r\n    uint256 public currentBuyerBatch = 0;\r\n    uint256 public batchSize = 1; // The number of buyers processed in each batch can be adjusted as needed.\r\n\r\n    event BatchProcessed(uint256 batchIndex, uint256 processedCount);\r\n    event BuyerAdded(string id, uint256 reservePrice, uint256 initialPrice, uint256 trust, uint256 lossAversion, uint256 qualityRequest);\r\n    event SellerAdded(string id, uint256 reservePrice, uint256 initialPrice, uint256 trust, uint256 lossAversion, string productId, uint256 maxMatchCount);\r\n    event ProductAdded(string productId, uint256 benchmarkPrice, uint256 qualityFactor);\r\n    event Matched(string buyerId, string sellerId, uint256 price);\r\n    event SellerMaxMatchesReached(string sellerId); \r\n    event MatchedDetail(\r\n        string indexed buyerId,\r\n        string indexed sellerId,\r\n        bool qualityPassed,       // Does the product quality meet the buyer's threshold?\r\n        bool reservePriceValid,   // Is the buyer's reserve price higher than the seller's?\r\n        bool priceRange,          // Is the reference price within the acceptable range for the traders?\r\n        bool dealSuccess,         // Was the match successful?\r\n        uint256 dealPrice,        // The matching price when the match is successful\r\n        string productId,         // The matched product ID\r\n        uint256 benchmarkPrice    // \r\n    );\r\n    // function getBuyersCount() public view returns (uint256) {\r\n    //     return buyers.length;\r\n    // }\r\n    // function getSellersCount() public view returns (uint256) {\r\n    //     return sellers.length;\r\n    // }\r\n    // function getProductsCount() public view returns (uint256) {\r\n    //     return products.length;\r\n    // }\r\n    // Initialization\r\n    function resetAll() public {\r\n        delete buyers;\r\n        delete sellers;\r\n        delete products;\r\n    }\r\n    // Pricing model enumeration\r\n    enum PricingMode { BASELINE, STATIC, NASH }\r\n    PricingMode public currentMode = PricingMode.BASELINE;\r\n\r\n    function setPricingMode(uint _mode) external {\r\n        require(_mode <= uint(PricingMode.NASH), \"Invalid mode\");\r\n        currentMode = PricingMode(_mode);\r\n    }\r\n    // Add product data\r\n    function addProduct(string memory productId, uint256 benchmarkPrice, uint256 qualityFactor,  MarketPeriod period) public {\r\n        products.push(Product({productId: productId, benchmarkPrice: benchmarkPrice, qualityFactor: qualityFactor, period: period}));\r\n        emit ProductAdded(productId, benchmarkPrice, qualityFactor);\r\n    }\r\n    // Add buyer data\r\n    function addBuyer(string memory id, uint256 reservePrice, uint256 initialPrice, uint256 trust, uint256 lossAversion, uint256 qualityRequest) public {\r\n        require(reservePrice > 0 && initialPrice > 0, \"Prices must be positive\");\r\n        buyers.push(Buyer({id: id, reservePrice: reservePrice, initialPrice: initialPrice, trust: trust, lossAversion: lossAversion, qualityRequest: qualityRequest}));\r\n        emit BuyerAdded(id, reservePrice, initialPrice, trust, lossAversion, qualityRequest);\r\n    }\r\n    // Add seller data\r\n    function addSeller(string memory id, uint256 reservePrice, uint256 initialPrice, \r\n                      uint256 trust, uint256 lossAversion, string memory productId,\r\n                      uint256 maxMatchCount) public {\r\n        require(reservePrice > 0 && initialPrice > 0, \"Prices must be positive\");\r\n        uint256 benchmarkPrice = getBenchmark(productId);\r\n        require(benchmarkPrice > 0, \"Product not found\");\r\n        uint256 computedPrice = calculateSellerPrice(initialPrice, benchmarkPrice, trust);        \r\n        sellers.push(Seller({\r\n            id: id,\r\n            reservePrice: reservePrice,\r\n            initialPrice: initialPrice,\r\n            trust: trust,\r\n            lossAversion: lossAversion,\r\n            productId: productId,\r\n            firstBid: computedPrice,\r\n            matchCount: 0,\r\n            maxMatchCount: maxMatchCount\r\n        }));        \r\n        emit SellerAdded(id, reservePrice, initialPrice, trust, lossAversion, productId, maxMatchCount);\r\n    }    \r\n    // Obtain the number of times the seller was matched\r\n    function getSellerMatchCount(string memory sellerId) public view returns (uint256) {\r\n        for (uint256 i = 0; i < sellers.length; i++) {\r\n            if (compareStrings(sellers[i].id, sellerId)) {\r\n                return sellers[i].matchCount;\r\n            }\r\n        }\r\n        revert(\"Seller not found\");\r\n    }    \r\n    // Obtain all the information of the sellers\r\n    function getAllSellers() public view returns (Seller[] memory) {\r\n        return sellers;\r\n    }\r\n    // Obtain the seller index\r\n    function getSellerIndex(string memory sellerId) internal view returns (int256) {\r\n        for (uint256 i = 0; i < sellers.length; i++) {\r\n            if (compareStrings(sellers[i].id, sellerId)) {\r\n                return int256(i);\r\n            }\r\n        }\r\n        return -1;\r\n    }    \r\n    // Status reset\r\n    function resetMatchingState(string memory specificSeller) public {\r\n        // Reset batch index\r\n        currentBuyerBatch = 0;\r\n        \r\n        if(bytes(specificSeller).length == 0) {\r\n            // Global Reset Mode: Reset all sellers\r\n            for(uint i = 0; i < sellers.length; i++) {\r\n                sellers[i].matchCount = 0;\r\n            }\r\n        } else {\r\n            // Specify the seller to reset the mode\r\n            int256 index = getSellerIndex(specificSeller);\r\n            if(index >= 0) {\r\n                sellers[uint256(index)].matchCount = 0;\r\n            }\r\n        }\r\n    }\r\n    // Obtain the benchmark price of the product\r\n    function getBenchmark(string memory productId) internal view returns (uint256) {\r\n        for (uint256 i = 0; i < products.length; i++) {\r\n            if (compareStrings(products[i].productId, productId)) {\r\n                return (products[i].benchmarkPrice);\r\n            }\r\n        }\r\n        return 0;\r\n    }\r\n    // Obtain the benchmark price of the product\r\n    function getProduct(string memory productId) internal view returns (uint256, uint256) {\r\n        for (uint256 i = 0; i < products.length; i++) {\r\n            if (compareStrings(products[i].productId, productId)) {\r\n                return (products[i].benchmarkPrice, products[i].qualityFactor);\r\n            }\r\n        }\r\n        return (0,0);\r\n    }\r\n    // Compare strings\r\n    function compareStrings(string memory a, string memory b) internal pure returns (bool) {\r\n        return keccak256(bytes(a)) == keccak256(bytes(b));\r\n    }\r\n    // Process buyers in batches\r\n    function performMatching() public returns (bool) {\r\n        uint256 startIndex = currentBuyerBatch * batchSize;\r\n        uint256 endIndex = (currentBuyerBatch + 1) * batchSize; \r\n        // Prevent going beyond the array boundaries\r\n        if (endIndex > buyers.length) {\r\n            endIndex = buyers.length;\r\n        }\r\n        // If there are no batches to process, reset and return.\r\n        if (startIndex >= endIndex) {\r\n            currentBuyerBatch = 0;\r\n            return false; // Indicates processing completion\r\n        }\r\n        uint256 processedCount = 0;     \r\n        // Handle the buyers of the current batch\r\n        for (uint256 i = startIndex; i < endIndex; i++) {\r\n            _processSingleBuyer(i);\r\n            processedCount++;\r\n        }\r\n        // Update batch index\r\n        currentBuyerBatch++;   \r\n\r\n        emit BatchProcessed(currentBuyerBatch - 1, processedCount);\r\n        return true; // Indicating that there are still more batches that need to be processed\r\n    }\r\n    //Single batch processing of buyers\r\n    function _processSingleBuyer(uint256 buyerIndex) internal {\r\n        Buyer storage buyer = buyers[buyerIndex];\r\n        string memory bestSellerId = \"\";\r\n        uint256 bestMatchPrice = type(uint256).max;\r\n        uint256 bestSellerIndex = type(uint256).max;\r\n        \r\n        // Traverse the sellers\r\n        for (uint256 j = 0; j < sellers.length; j++) {\r\n            // Check whether the seller has reached the maximum matching limit.\r\n            if (sellers[j].matchCount >= sellers[j].maxMatchCount) {\r\n                continue;\r\n            }\r\n            (uint256 benchmarkPrice, uint256 qualityFactor) = getProduct(sellers[j].productId);    \r\n            // Create a context object\r\n            NegotiationContext memory context = NegotiationContext({\r\n                benchmarkPrice: benchmarkPrice,\r\n                qualityFactor: qualityFactor,\r\n                buyerFirstOffer: 0,\r\n                adjustedSellerFirstBid: 0,\r\n                diff: 0,\r\n                buyerMinProfit: 0,\r\n                sellerMinProfit: 0,\r\n                buyerBehavioral: 0,\r\n                sellerBehavioral: 0\r\n            });\r\n            \r\n            // \r\n            uint256 matchPrice = _calculateMatch(buyer, sellers[j], context);\r\n            // \r\n            emit MatchedDetail(\r\n                buyer.id,\r\n                sellers[j].id,\r\n                context.qualityFactor > buyer.qualityRequest, //qualityPassed\r\n                buyer.reservePrice > sellers[j].reservePrice,   //  reserveValid\r\n                //priceRange\r\n                (matchPrice > sellers[j].reservePrice - sellers[j].reservePrice * sellers[j].lossAversion/50000) \r\n                && (matchPrice < buyer.reservePrice + buyer.reservePrice * buyer.lossAversion/50000),\r\n                matchPrice > 0,                              // dealSuccess\r\n                matchPrice,                                  // dealPrice\r\n                sellers[j].productId,                        // productId\r\n                context.benchmarkPrice                       // benchmarkPrice\r\n            );\r\n            \r\n            // \r\n            if (matchPrice > 0 && matchPrice < bestMatchPrice) {\r\n                bestMatchPrice = matchPrice;\r\n                bestSellerId = sellers[j].id;\r\n                bestSellerIndex = j;\r\n            }\r\n        }\r\n        \r\n        // \r\n        if (bestMatchPrice != type(uint256).max) {\r\n            emit Matched(buyer.id, bestSellerId, bestMatchPrice);\r\n            sellers[bestSellerIndex].matchCount++;\r\n            \r\n            if (sellers[bestSellerIndex].matchCount >= sellers[bestSellerIndex].maxMatchCount) {\r\n                emit SellerMaxMatchesReached(bestSellerId);\r\n            }\r\n        }\r\n    }\r\n    //perfomMatching\r\n    // \r\n    function _calculateMatch(Buyer storage buyer, Seller storage seller, NegotiationContext memory context) internal view returns (uint256) {\r\n        // === 1 ===\r\n        if (!_validatePreConditions(context.qualityFactor, buyer.qualityRequest, seller.reservePrice, buyer.reservePrice)) {\r\n            return 0; // \r\n        }\r\n        // === 2 ===\r\n        uint256 candidatePrice = _calculateCandidatePrice(buyer, seller, context);\r\n        // === 3 ===\r\n        return _validatePostConditions(candidatePrice, seller.reservePrice, buyer.reservePrice, seller.lossAversion, buyer.lossAversion) ? candidatePrice : 0;\r\n    }\r\n\r\n    // 1+\r\n    function _validatePreConditions(\r\n        uint256 qualityFactor,\r\n        uint256 buyerQualityReq,\r\n        uint256 sellerReserve,\r\n        uint256 buyerReserve\r\n    ) private pure returns (bool) {\r\n        //  (Q_p > Q_re)\r\n        if (qualityFactor <= buyerQualityReq) {\r\n            return false;\r\n        }\r\n        //  (P_res^b > P_res^s)\r\n        if (buyerReserve <= sellerReserve) {\r\n            return false;\r\n        }\r\n        return true;\r\n    }\r\n\r\n    // 2\r\n    function _calculateCandidatePrice(\r\n        Buyer storage buyer,\r\n        Seller storage seller,\r\n        NegotiationContext memory context\r\n    ) private view returns (uint256) {\r\n        if (currentMode == PricingMode.STATIC) {\r\n            return context.benchmarkPrice;\r\n        } else if (currentMode == PricingMode.NASH) {\r\n            return (seller.reservePrice + buyer.reservePrice) / 2;\r\n        } else if (currentMode == PricingMode.BASELINE) {\r\n            // \r\n            context.buyerFirstOffer = calculateBuyerPrice(buyer.initialPrice, context.benchmarkPrice, buyer.trust);\r\n            // \r\n            context.adjustedSellerFirstBid = boundValue(seller.firstBid, seller.reservePrice, buyer.reservePrice);\r\n            context.buyerFirstOffer = boundValue(context.buyerFirstOffer, seller.reservePrice, buyer.reservePrice);\r\n            // \r\n            context.diff = abs(uint256(buyer.reservePrice), uint256(seller.reservePrice));\r\n            // \r\n            if (context.adjustedSellerFirstBid <= context.buyerFirstOffer) {\r\n                return (context.adjustedSellerFirstBid + context.buyerFirstOffer) / 2;\r\n            }\r\n            // \r\n            return calculateEquilibriumPrice(\r\n                context.buyerFirstOffer,\r\n                context.adjustedSellerFirstBid,\r\n                calculateBehavioralCoefficient(buyer.reservePrice, context.buyerFirstOffer, buyer.lossAversion, context.diff),\r\n                calculateBehavioralCoefficient(seller.reservePrice, context.adjustedSellerFirstBid, seller.lossAversion, context.diff)\r\n            );\r\n        }\r\n        return 0;\r\n    }\r\n    // 3+\r\n    function _validatePostConditions(\r\n        uint256 candidatePrice,\r\n        uint256 sellerReserve,\r\n        uint256 buyerReserve,\r\n        uint256 sellerlossAversion,\r\n        uint256 buyerlossAversion\r\n    ) private pure returns (bool) {\r\n        //  (P_res^s <= P_on <= P_res^b)\r\n        if (candidatePrice <= sellerReserve - sellerReserve* sellerlossAversion/50000 || candidatePrice >= buyerReserve + buyerReserve* buyerlossAversion/50000) {\r\n            return false;\r\n        }\r\n        return true;\r\n    }\r\n    // 4\r\n    function boundValue(\r\n        uint256 value,\r\n        uint256 minBound,\r\n        uint256 maxBound\r\n    ) private pure returns (uint256) {\r\n        if (value < minBound) return minBound + (maxBound - minBound)/10;\r\n        if (value > maxBound) return maxBound - (maxBound - minBound)/10;\r\n        return value;\r\n    }\r\n    // \r\n    function calculateBuyerPrice(uint256 initialPrice, uint256 benchmarkPrice, uint256 trust) internal pure returns (uint256) {\r\n        if (benchmarkPrice >= initialPrice) {\r\n            return initialPrice + (trust * (benchmarkPrice - initialPrice)) / 10000;\r\n        } else {\r\n            return initialPrice - (trust * (initialPrice - benchmarkPrice)) / 10000;\r\n        }\r\n    }\r\n    // \r\n    function calculateSellerPrice(uint256 initialPrice, uint256 benchmarkPrice, uint256 trust) internal pure returns (uint256) {\r\n        if (benchmarkPrice >= initialPrice) {\r\n            return initialPrice + (trust * (benchmarkPrice - initialPrice)) / 10000;\r\n        } else {\r\n            return initialPrice - (trust * (initialPrice - benchmarkPrice)) / 10000;\r\n        }\r\n    }\r\n    // Behavioral\r\n    function calculateBehavioralCoefficient(uint256 reservePrice, uint256 firstPrice, uint256 lossAversion, uint256 diff) internal pure returns (uint256) {\r\n        uint256 priceDiff = abs(uint256(reservePrice), uint256(firstPrice));\r\n        uint256 denominator = priceDiff + diff;\r\n        if (denominator == 0) {\r\n            return 1; // \r\n        }\r\n        return lossAversion * diff / denominator; //  1-100\r\n    }\r\n    // \r\n    function calculateEquilibriumPrice(uint256 buyerFirstOffer, uint256 sellerFirstBid, uint256 buyerBehavioral, uint256 sellerBehavioral) internal pure returns (uint256) {\r\n        // \r\n        if (buyerBehavioral < 1) buyerBehavioral = 1; // 1%\r\n        if (sellerBehavioral < 1) sellerBehavioral = 1;\r\n        // \r\n        uint256 priceDiff = sellerFirstBid - buyerFirstOffer;\r\n        uint256 numerator = priceDiff * (10000 - buyerBehavioral) * 10000;\r\n        uint256 denominator = 100000000 - (buyerBehavioral * sellerBehavioral);\r\n        if (denominator <= 0) {\r\n            return 1;\r\n            }\r\n        uint256 adjustment = numerator / denominator;\r\n        return buyerFirstOffer + adjustment;\r\n    }\r\n    // Calculate the absolute value\r\n    function abs(uint256 a, uint256 b) internal pure returns (uint256) {\r\n        if (a >= b){\r\n            return uint256(a - b);\r\n        }\r\n        else {\r\n            return uint256(b - a);\r\n        }\r\n    }\r\n}",
  "sourcePath": "E:\\Research\\Paper5\\experiment\\truffle-project\\contracts\\DataPrice.sol",
  "compiler": {
    "name": "solc",
    "version": "0.8.0+commit.c7dfd78e.Emscripten.clang"
  },
  "schemaVersion": "3.4.16",
  "updatedAt": "2025-09-11T16:34:02.748Z",
  "networkType": "ethereum",
  "devdoc": {
    "kind": "dev",
    "methods": {},
    "version": 1
  },
  "userdoc": {
    "kind": "user",
    "methods": {},
    "version": 1
  }
}